:100000000C945E000C9486000C9486000C94860080
:100010000C9486000C9486000C9486000C94860048
:100020000C9486000C9486000C9486000C94860038
:100030000C9486000C9486000C9486000C94860028
:100040000C9426010C9486000C9486000C94860077
:100050000C9486000C9486000C9486000C94860008
:100060000C9486000C9486000000000024002700F9
:100070002A0000000000250028002B0004040404CE
:100080000404040402020202020203030303030342
:10009000010204081020408001020408102001021F
:1000A00004081020000000080002010000030407FB
:1000B00000000000000000009703F60311241FBE9B
:1000C000CFEFD8E0DEBFCDBF21E0A6E0B1E001C0B8
:1000D0001D92A932B207E1F711E0A0E0B1E0E2E33E
:1000E000FBE002C005900D92A630B107D9F710E0F1
:1000F000CDE5D0E004C02197FE010E945204CC352A
:10010000D107C9F70E9470010C948C050C94000073
:1001100090E0FC01EC55FF4F2491FC01E057FF4FAC
:100120003491FC01E458FF4FE491EE23B9F022230F
:1001300039F02330F1F098F4213009F1223019F12F
:10014000F0E0EE0FFF1FEE58FF4FA591B4918FB76F
:10015000F894EC9130953E233C938FBF089527305F
:10016000A9F02830C9F0243059F7809180008F7DA4
:1001700003C0809180008F7780938000E1CF84B5A9
:100180008F7784BDDDCF84B58F7DFBCF8091B000AC
:100190008F778093B000D4CF8091B0008F7DF9CF5E
:1001A000CF93DF9390E0FC01E057FF4F24918458F8
:1001B0009F4FFC0184918823D1F090E0880F991F14
:1001C000FC01E859FF4FA591B491FC01EE58FF4F97
:1001D000C591D49161110EC09FB7F8948C91E22F14
:1001E000E0958E238C932881E223E8839FBFDF91E3
:1001F000CF9108958FB7F894EC91E22BEC938FBFD9
:10020000F6CF3FB7F8948091210190912201A091FF
:100210002301B091240126B5A89B05C02F3F19F0FA
:100220000196A11DB11D3FBFBA2FA92F982F882776
:10023000BC01CD01620F711D811D911D42E0660F51
:10024000771F881F991F4A95D1F708951F920F9223
:100250000FB60F9211242F933F938F939F93AF93D9
:10026000BF9380911D0190911E01A0911F01B0913B
:10027000200130911C0123E0230F2D3758F5019602
:10028000A11DB11D20931C0180931D0190931E019F
:10029000A0931F01B0932001809121019091220130
:1002A000A0912301B09124010196A11DB11D80935D
:1002B000210190932201A0932301B0932401BF91C7
:1002C000AF919F918F913F912F910F900FBE0F9003
:1002D0001F90189526E8230F0296A11DB11DD2CFBD
:1002E000CF93DF93CDB7DEB762970FB6F894DEBF3A
:1002F0000FBECDBF789484B5826084BD84B5816023
:1003000084BD85B5826085BD85B5816085BD8091E0
:100310006E00816080936E00109281008091810058
:100320008260809381008091810081608093810050
:10033000809180008160809380008091B100846012
:100340008093B1008091B00081608093B000809173
:100350007A00846080937A0080917A008260809332
:100360007A0080917A00816080937A0080917A008F
:10037000806880937A001092C10080910C01909166
:100380000D0197FD07C061E00E94D00080910C0133
:100390000E94880081E080930701C12CD12C760156
:1003A0004601570110E000E0C501B40128E631E044
:1003B00040E050E00E94060444275527AAEFB5E02C
:1003C0000E942504DC01CB019058AF4FBF4FCD01F7
:1003D000BB2797FDB095AB2F8E3F21E0920708F029
:1003E0003DC1282F8F3F910508F456C13EEF381BC1
:1003F000832F60E02FEF409108015091090104170D
:10040000150708F068C0898B1A8A29883A88C101C3
:10041000B0E0A0E0DC01992788276D871E862D8437
:100420003E84A10170E060E0482B592B6A2B7B2BA6
:100430002F87188A2F843888C101B0E0A0E0BA2F36
:10044000A92F982F8827842B952BA62BB72B2D010E
:1004500066247724492F5A2F6B2F7727342E282E86
:10046000E0910E01EE23A1F02E2F30E0249D10012B
:10047000259D300C349D300C11243B862A864B84FC
:10048000E49F90011124332EE89FA0011124252E12
:10049000E091140140910F01509110012091110140
:1004A000E21300C19801220F331F200F311F240FC8
:1004B000351FE0911101E20FF32FF11D4082E09111
:1004C0001201E20FF32FF11D308290911301290FD9
:1004D000311DF90120820F5F1F4FFAE0AF0EB11CF2
:1004E0000032110509F060CF80910F019091100149
:1004F000892B09F47CC00E94010100911501109123
:1005000016012091170130911801601771078207B9
:10051000930740F4609315017093160180931701BF
:100520009093180100911501109116012091170167
:1005300030911801601B710B820B930B6C32714070
:1005400081059105C0F2F89480910A0190910B0108
:100550009A838983E0910F01F0911001DF011196D8
:100560008081898790910601E0911901F0911A012B
:1005700080911B01992309F4A1C09081982B988741
:100580009081809589238F838F818C8338E03B8392
:1005900038854F8169855B812C8189819A8130837F
:1005A00067FD232F5A952083242F39F0661F00C042
:1005B00000004083000000C0F2CF58E06D914083FE
:1005C0000000019761F7F0931A01E0931901698720
:1005D0005B832C839A83898378940E9401016093C2
:1005E00015017093160180931701909318010E94D2
:1005F00001012B013C018AE0882E912CA12CB12C09
:100600000E9401016419750986099709683E7340C3
:1006100081059105A8F351E0851A9108A108B10858
:1006200088EE480E83E0581E611C711C81149104F1
:10063000A104B10429F7FFEFEF1AFF0AC114D10496
:1006400028E6E20621E0F20609F0AACE80E090E07A
:10065000892B09F4A2CE0E9400009FCE8C3FE3E0DC
:100660009E0760F462E0680F2FEF8D3FF2E09F0776
:1006700018F02CEF281B6FEF80E0BDCE8A3F25E0FD
:10068000920769F06AEF681B8B3F34E0930740F4F0
:100690008C5F6FEF20E0AFCE60E08FEFACCE60E01C
:1006A00020E0FBCF9801220F331F220F331F240FAE
:1006B000351FE20FF32FF11D1082FBCE9081982B96
:1006C00098879081809589238F838F818E8348E0DE
:1006D0004D8338854F8169855D812E8189819A811D
:1006E000308367FD232F00C000C0208300C000C0FE
:1006F00000C000C000C040830000242F5A9541F084
:10070000661F000000C000C000C000C000C0E8CFED
:1007100058E06D9100C0408300C0019709F7F09345
:100720001A01E093190169875D832E8353CF1092DC
:10073000070110920E0110921501109216011092ED
:1007400017011092180181E0809314018093110128
:100750001092120192E0909313018093060180E6BB
:1007600090E090930B0180930A010E94670490939C
:10077000100180930F01009781F120E6FC01119296
:100780002A95E9F780E290E09093090180930801AF
:1007900085E090E090930D0180930C01809107011A
:1007A000882339F061E085E00E94D00085E00E9456
:1007B0008800E1E8F0E0E491F0E0EE0FFF1FEE5872
:1007C000FF4F8591949190931A0180931901E5E967
:1007D000F0E0E491E0931B01089510920B01109258
:1007E0000A011092090110920801D2CF80910F01E5
:1007F000909110010E94030580910C0190910D01D0
:1008000097FD03C060E00C94D0000895052E97FB7F
:100810001EF400940E941D0457FD07D00E9430046E
:1008200007FC03D04EF40C941D0450954095309570
:1008300021953F4F4F4F5F4F08959095809570954C
:1008400061957F4F8F4F9F4F08950E945804A59F39
:10085000900DB49F900DA49F800D911D11240895BB
:10086000A1E21A2EAA1BBB1BFD010DC0AA1FBB1FB4
:10087000EE1FFF1FA217B307E407F50720F0A21B26
:10088000B30BE40BF50B661F771F881F991F1A9493
:1008900069F760957095809590959B01AC01BD01BD
:1008A000CF010895EE0FFF1F0590F491E02D0994FC
:1008B000A29FB001B39FC001A39F700D811D1124A1
:1008C000911DB29F700D811D1124911D08950F93EC
:1008D0001F93CF93DF938230910510F482E090E074
:1008E000E0912701F091280130E020E0B0E0A0E0A5
:1008F000309799F42115310509F44AC0281B390BAA
:1009000024303105D8F58A819B816115710589F103
:10091000FB0193838283FE0111C0408151810281DA
:10092000138148175907E0F04817590799F41097B1
:1009300061F012960C93129713961C933296CF0186
:10094000DF91CF911F910F9108950093270110938C
:100950002801F4CF2115310551F04217530738F023
:10096000A901DB019A01BD01DF01F801C1CFEF014F
:10097000F9CF9093280180932701CDCFFE01E20F9C
:10098000F31F819391932250310939832883D7CF64
:100990002091250130912601232B41F42091020161
:1009A000309103013093260120932501209100010D
:1009B000309101012115310541F42DB73EB7409129
:1009C000040150910501241B350BE0912501F091A4
:1009D0002601E217F307A0F42E1B3F0B2817390757
:1009E00078F0AC014E5F5F4F2417350748F04E0F8B
:1009F0005F1F5093260140932501819391939FCFD0
:100A0000F0E0E0E09CCFCF93DF930097E9F0FC01AA
:100A1000329713821282A0912701B0912801ED0133
:100A200030E020E01097A1F420813181820F931FE4
:100A300020912501309126012817390709F061C05E
:100A4000F0932601E0932501DF91CF910895EA010B
:100A5000CE17DF07E8F54A815B819E0141155105FC
:100A6000B1F7E901FB83EA8349915991C40FD51F7E
:100A7000EC17FD0761F4808191810296840F951F28
:100A8000E90199838883828193819B838A83F0E043
:100A9000E0E012968D919C9113970097B9F52D91F6
:100AA0003C911197CD010296820F931F2091250151
:100AB000309126012817390739F6309751F51092F1
:100AC000280110922701B0932601A0932501BCCFE5
:100AD000D383C28340815181840F951FC817D907E2
:100AE00061F44E5F5F4F88819981480F591F518390
:100AF00040838A819B81938382832115310509F08C
:100B0000B0CFF0932801E09327019ECFFD01DC01D7
:100B1000C0CF13821282D7CF10E0CDE5D0E004C061
:100B2000FE010E9452042196CE35D107C9F7F894F0
:020B3000FFCFF5
:060B320000002901800013
:00000001FF
